:030000000200A952
:0C00A900787FE4F6D8FD7581070200772F
:0A00B5003F065B4F666D7D077F6F0D
:10009400EF1FAC0670011E4C600A7D027CC7DCFEBB
:0400A400DDFC80EC13
:0100A8002235
:10000300EF14B40800505490001875F003A4C5838E
:1000130025F0C58373020030020034020038020069
:100023003C020040020048020050020058D2A48063
:100033000ED2A48012D2A48016D2A4801AC2A4D253
:10004300A3D2A28016C2A4D2A3C2A2800EC2A4C20B
:10005300A3D2A28006C2A4C2A3C2A274B52DF58204
:1000630074003CF583E493F5807F017E00120094D5
:04007300E4F580220E
:100077007D017C007F011200037D027C007F02125C
:0D00870000037D037C007F0312000380E373
:00000001FF
