:0C035500436C6F636B3A003A20203A00C2
:09036100011C17011B3B011A32BB
:100305005389F0438901C28DD28C758CFC758A6640
:07031500D2AFD2A9C2B92248
:10012E001203051203327BFF7A0379557D017F019D
:10013E001202A77BFF7A03795C7D037F021202A76E
:10014E00E51CFB7A00750C027D017F021202E8E5C8
:10015E001BFB7A00750C027D047F021202E8E51A81
:0F016E00FB7A00750C027D077F021202E880D138
:03000B0002017D72
:04017D00C0E0C0D04E
:100181000519E51970020518758CFC758A66D3E5A9
:100191001994E8E5189403402A751800751900E5CB
:1001A1001AB43B1D751A00E51BB43B11751B00E524
:1001B1001CB41705751C00800A051C8006051B80F0
:0301C10002051A1A
:0501C400D0D0D0E032B4
:06034600C2A58F80D2A7C2
:08034C007F027EEFDEFEDFFC04
:010354002286
:0A036B00C2A6120346C2A702034C0B
:1002CA00CFCDCFCECCCE12004D7C007D0A12004D90
:0402DA00ED2430FFE0
:0A02DE00D2A6120346C2A702034C89
:10031C00AE07BE0104ED148006BE0209ED243F4475
:06032C0080FF12036B22AA
:100332007F3812036B7F0C12036B7F0612036B7FF5
:040342000102036B46
:0A037500AC0312031CAF040202DE09
:0602A7008B088A09890A98
:1002AD0012031CE4FDAB08AA09A90A8D827583000F
:0C02BD0012000EFF60061202DE0D80E948
:0102C9002212
:0C0274007F0AEA24FFFDE434FFFC7E005A
:080280008E0D8F0E8C0F8D1006
:100288007F017E00E4FBEBC39510E50F6480F874F2
:0E0298008098500AAC0DAD0E12003B0B80E8B2
:0102A6002235
:0402E8008A0A8B0BE8
:1002EC0012031CAA0CEAD39400400D120274AC0A3F
:0802FC00AD0B1202CA1A80EDDD
:0103040022D6
:1001C90012031CC3EA64809480400B7F2B1202DE69
:1001D9008A168B17800E7F2D1202DEC3E49BF5175A
:1001E900E49AF516AA15EAD39400400D120274ACEC
:0901F90016AD171202CA1A80EDBE
:0102020022D9
:040203008A1F8B20A3
:1002070012031CAA21EAD3940040297F1012027618
:10021700AC1FAD20CFCDCFCECCCE12004DEF540FBB
:10022700FEC3940AEE5004243080022437FF1202E2
:04023700DE1A80D17A
:01023B0022A0
:04023C008A248B2560
:1002400012031CAA26EAD394004028EA24FFFDE406
:1002500034FFFC7F027E00120280AC24AD25CFCD9E
:10026000CFCECCCE12004DEF54012430FF1202DE6F
:030270001A80D21F
:010273002268
:030000000200A259
:0C00A200787FE4F6D8FD7581260200E9A5
:10000E00BB010CE58229F582E5833AF583E02250A7
:10001E0006E92582F8E622BBFE06E92582F8E222F1
:0D002E00E58229F582E5833AF583E493220B
:10003B00EF8DF0A4A8F0CF8CF0A428CE8DF0A42ED9
:02004B00FE2293
:10004D00BC000BBE0029EF8DF084FFADF022E4CC97
:10005D00F875F008EF2FFFEE33FEEC33FCEE9DEC60
:10006D00984005FCEE9DFE0FD5F0E9E4CEFD22EDA6
:10007D00F8F5F0EE8420D21CFEADF075F008EF2FF0
:10008D00FFED33FD4007985006D5F0F222C398FDE1
:05009D000FD5F0EA227E
:1000AE0002012EE493A3F8E493A34003F68001F239
:1000BE0008DFF48029E493A3F85407240CC8C33353
:1000CE00C4540F4420C8834004F456800146F6DF22
:1000DE00E4800B0102040810204080900361E47E4E
:1000EE00019360BCA3FF543F30E509541FFEE49317
:1000FE00A360010ECF54C025E060A840B8E493A3DE
:10010E00FAE493A3F8E493A3C8C582C8CAC583CA08
:10011E00F0A3C8C582C8CAC583CADFE9DEE780BEC0
:01036A000092
:00000001FF
