:03000300010A00EF
:10014F005389F0438901C28DD28C758CFC758A66F8
:07015F00D2AFD2A9C2B92200
:040166007F0A7E008E
:10016A007D027CC7DCFEDDFCEF1F70011E144E70A1
:01017A00EF95
:01017B002261
:1000ED00E4FB20B1107F0AFE12016A30B1FD12014E
:1000FD00667B01802E20B00D12016630B1FD12011C
:10010D00667B02801E20B20D12016630B1FD120118
:10011D00667B03800E20B30B12016630B1FD120118
:05012D00667B04AF0336
:0101320022AA
:10013300E4FF12014F75A0FE1200EDBF01FAE50ABC
:0C01430070047E0180027E008E0A80ECB9
:03000B0002009A56
:0B009A00C0E0C0D075D000C000C0075F
:1000A5000509E50970020508758CFC758A66D3E5B6
:1000B5000994F4E50894014026750800750900E5E2
:1000C5000A600EAFA07801EF08800103D8FDFF801C
:0F00D5000CAFA07801EF08800123D8FDFF8FA0AA
:0900E400D007D000D0D0D0E032EA
:0300000002000EED
:0C000E00787FE4F6D8FD75810A020055E9
:10001A00020133E493A3F8E493A34003F68001F2C8
:10002A0008DFF48029E493A3F85407240CC8C333E7
:10003A00C4540F4420C8834004F456800146F6DFB6
:10004A00E4800B0102040810204080900003E47E43
:10005A00019360BCA3FF543F30E509541FFEE493AB
:10006A00A360010ECF54C025E060A840B8E493A372
:10007A00FAE493A3F8E493A3C8C582C8CAC583CA9D
:10008A00F0A3C8C582C8CAC583CADFE9DEE780BE55
:0100060000F9
:00000001FF
