:0300000002006D8E
:0C006D00787FE4F6D8FD75810702007969
:0A0084003F065B4F666D7D077F6F3E
:10000300EF14B40800505490001875F003A4C5838E
:1000130025F0C58373020030020034020038020069
:100023003C020040020048020050020058D2A48063
:100033000ED2A48012D2A48016D2A4801AC2A4D253
:10004300A3D2A28016C2A4D2A3C2A2800EC2A4C20B
:10005300A3D2A28006C2A4C2A3C2A274842DF58235
:0A00630074003CF583E493F580225D
:0B0079007D027C007F0712000380FE68
:00000001FF
