:10010A000000000000000000000A7E1C7E0E0404AD
:10011A0030FBFF3CFFFF340C000000000000000031
:10000300E4F510F511F512751318F514F5157516B9
:100013000F120148E4F511C3E5119513E49512504D
:10002300F3E4F514F515F510E510251190010A9385
:10003300FF74082510F8A6070510E510B408E97B3E
:10004300007A0079081200BE0515E5157002051443
:10005300C39516E514940040E674082511F5118044
:01006300B6E6
:10012A007D027CC7DCFEDDFCEF1F70011E144E70E1
:01013A00EFD5
:01013B0022A1
:05014800C2B5C2B622A1
:02006400AD07E6
:10006600E4FB7E007480A803088006CEA2E713CEC8
:1000760013D8F8FFEDF582EF558224FF92B4D2B67D
:0A008600C2B60BBB08DCD2B5C2B550
:01009000224D
:1000E800AA07AF05120064AF02A80774800880024F
:1000F800C313D8FCF4F5807F017E0012012A7580B5
:02010800FF22D4
:0600BE008B178A18891956
:1000C400E4F51AAB17AA18A919851A8275830012C8
:1000D4000091FD7C00AF1A1200E8051AE51AC394DA
:0300E4000840E0F1
:0100E70022F6
:0300000002013CBE
:0C013C00787FE4F6D8FD75811A020003FC
:10009100BB010CE58229F582E5833AF583E0225024
:1000A10006E92582F8E622BBFE06E92582F8E2226E
:0D00B100E58229F582E5833AF583E4932288
:00000001FF
