:10099D00543A0054483A00544C3A004F563A4800E5
:0A09AD004F563A4C00202020200095
:10046D00120A617FE87E03120A29E4FF1208008F49
:10047D000F7F011208008F0AD3E50F648094FD50A1
:10048D0016C3E50A64809449400DD3E50A6480F8EB
:10049D00E50F6480985006750F1E750A0F120A3EFF
:1004AD007BFF7A09799D7D017F011208A87BFF7A78
:1004BD000979A07D017F021208A87BFF7A0979A432
:1004CD007D097F021208A8E50FFB3395E0FA751937
:1004DD00037D047F021206E9E50AFB3395E0FA7508
:1004ED0019037D0C7F021206E91209D0120AAD8F95
:1004FD0010120A611208308F0E8E0D8D0C8C0BE4CC
:10050D00FFFEFDFCAB0EAA0DA90CA80B1201B450F9
:10051D001E7B2D7D037F01120A90AF0EAE0DAD0C2B
:10052D00AC0B12022D8F148E138D128C1180157B36
:10053D002B7D037F01120A90850E14850D13850CFA
:10054D0012850B11AF14AE13AD12AC1112027CABB0
:10055D0007AA067519037D047F011209477B2E7DBD
:10056D00077F01120A90E4FFFE7DC87C42AB14AAFE
:10057D0013A912A81112000E12027CE47B64FAF981
:10058D00F81203CD7519027D087F01120947E51098
:10059D00700302063AB4010E050FD3E50F64809483
:1005AD00FD4003750F7DE510B40211150FD3E50A5B
:1005BD006480F8E50F6480985002050FE510B403D0
:1005CD0011050AC3E50F6480F8E50A6480984002BE
:1005DD00150AE510B4040E150AC3E50A64809449A2
:1005ED005003750AC9E50FFB3395E0FA7519037DC4
:1005FD00047F021206E9E50AFB3395E0FA7519034B
:10060D007D0C7F021206E9E50FFD3395E0FCE4FF5A
:10061D001208847F057E00120A29E50AFD3395E054
:10062D00FC7F011208847F057E00120A29AC0FECB5
:10063D00120248AB0EAA0DA90CA80B1201B4600A48
:10064D0040087BFF7A0979A88019AC0AEC120248A0
:10065D00AB0EAA0DA90CA80B1201B450177BFF7A93
:10066D000979AD7D0D7F011208A87F647E00120807
:10067D00CB0204F97BFF7A0979B27D0D7F01120857
:04068D00A80204F9C2
:03000B0002069159
:10069100C0E0C0F0C083C082C0D075D000C000C02F
:0D06A10001C002C003C004C005C006C007B0
:1006AE00758A18758CFC0509E50970020508C39456
:1006BE0014E5089400400975080075090012075CDE
:1006CE00D007D006D005D004D003D002D001D00080
:0B06DE00D0D0D082D083D0F0D0E0322A
:100A2900EF1FAC0670011E4C600A7D027CEFDCFEF4
:040A3900DDFC80EC74
:010A3D002296
:060A5200C2A58F80D2A7AF
:080A58007F027EEFDEFEDFFCF1
:010A60002273
:0A0A8600C2A6120A52C2A7020A58C3
:1008ED00CFCDCFCECCCE12033C7C007D0A12033C83
:0408FD00ED2430FFB7
:0A090100D2A6120A52C2A7020A5839
:1009E700AE07BE0104ED148006BE0209ED243F44A4
:0609F70080FF120A8622B7
:100A3E007F38120A867F0C120A867F06120A867F7C
:040A4E0001020A8611
:0A0A9000AC031209E7AF04020901EC
:0608A8008B158A1689176A
:1008AE001209E7E4FDAB15AA16A9178D8275830010
:0C08BE001202FDFF60061209010D80E926
:0108CA00220B
:0C07CD007F0AEA24FFFDE434FFFC7E00FC
:0807D9008E1C8F1D8C1E8D1F6C
:1007E1007F017E00E4FBEBC3951FE51E6480F87476
:0E07F1008098500AAC1CAD1D12032A0B80E844
:0107FF0022D7
:040947008A178B1868
:10094B001209E7AA19EAD39400400D1207CDAC1790
:08095B00AD181208ED1A80ED41
:010963002271
:1006E9001209E7C3EA64809480400B7F2B12090149
:1006F9008A1A8B1B800E7F2D120901C3E49BF51BFF
:10070900E49AF51AAA19EAD39400400D1207CDAC60
:090719001AAD1B1208ED1A80ED67
:0107220022B4
:040723008A228B2378
:100727001209E7AA24EAD3940040297F101207CFC1
:10073700AC22AD23CFCDCFCECCCE12033CEF540F9E
:10074700FEC3940AEE5004243080022437FF1209B6
:04075700011A80D132
:01075B00227B
:040795008A278B28FC
:100799001209E7AA29EAD394004028EA24FFFDE4D4
:1007A90034FFFC7F027E001207D9AC27AD28CFCDDC
:1007B900CFCECCCE12033CEF54012430FF120901F5
:0307C9001A80D2C1
:0107CC00220A
:100884008F158C168D17120AA47FA012085B120A0A
:100894006EAF1512085B120A6EAF1712085B120ACC
:0408A4006E020003DD
:020800008F1552
:10080200120AA47FA012085B120A6EAF1512085BCF
:10081200120A6E120AA47FA112085B120A6E120952
:0D0822000B8F167F01120A9A120003AF1609
:01082F0022A6
:090AA400D2A0D2A1C2A0C2A1227D
:07000300C2A0D2A1D2A0228D
:02085B00AD07E7
:10085D00E4FB7E007480A803088006CEA2E713CEC9
:10086D0013D8F8FFEDF582EF558224FF92A0D2A1A7
:06087D00C2A10BBB08DC68
:010883002252
:10090B00E4FFD2A0FED2A130A00DA806748008800F
:0D091B0002C313D8FC4207C2A10EBE08E8BB
:0109280022AC
:0A0A9A00EF24FF92A0D2A1C2A12216
:0B0A6E00D2A0D2A1A2A0E433FFC2A1DD
:010A7900225A
:0D0A61001209297FCC1209B77F440209B7A2
:100830001209297FCC1209B77FBE1209B7120964C9
:100840008F15120964EFFEE515FFFDAC06EC1202F0
:0B08500043E4FBFA79807841020117B5
:10092900C2AFD2B7C2B77FF7DFFED2B77F20DFFEF3
:0D093900A2B7E433FE7FF7DFFED2AFAF06BA
:01094600228E
:1009FD00C2AFC2B77E04DEFEEF24FF92B77E18DED3
:050A0D00FED2B7D2AFDC
:010A120022C1
:10098100C2AFC2B77F02DFFED2B77F02DFFEA2B7DE
:0B099100E433FE7F18DFFED2AFAF069C
:01099C002238
:0209B700AD078A
:1009B900E4FCA8047401088002C333D8FC5DFF126B
:0609C90009FD0CBC08EC66
:0109CF002205
:10096400E4FDFC120981EF600DA804740108800203
:0C097400C333D8FC42050CBC08E9AF05F9
:010980002254
:050AAD00E4AF2CF52C64
:010AB2002221
:100A1300E4FF20B1010F20B0027F0220B2027F0366
:050A230020B3027F0476
:010A280022AB
:10075C00852A2B120A138F2AE52BB40107E52A7080
:10076C0003752C01E52BB40207E52A7003752C02E6
:10077C00E52BB40307E52A7003752C03E52BB404B1
:08078C0007E52A7003752C0437
:010794002242
:1009D0005389F0438901758A18758CFCC28DD28CBD
:0709E000D2A9D2AFC2B92277
:050AB300007FF7DFFEEB
:010AB800221B
:0408CB00AD07AC06C3
:1008CF00E4FBFAED25E0FFEC33FEC3EB9FEA9E500D
:0D08DF000CB2A5120AB30BBB00010A80E6A3
:0108EC0022E9
:10000E00EC4D6011E8497017ED33EC3304600DE4EC
:10001E00FCFFFEFD22E933E8330470F80202E81219
:10002E0002B358046009E4CC24815006285009021A
:10003E0002F22840030202EFC0E0EB4A7044B9809E
:10004E0006D0E0FB0202DEEF4E701CBD8008EBFF17
:10005E00EAFEE9FD80EBE98DF0A4FEE5F00200F783
:10006E00E9CDF9EAFEEBFFEF89F0A4FCE5F0CE89CD
:10007E00F0A42EFFE435F0CD89F0A42DFEE435F08A
:10008E008067EF4E7005BD80D780C3EF8BF0A4ACB8
:10009E00F0EE8BF0A42CFCE435F0F8EF8AF0A42CF3
:1000AE00E5F038FCE433CB8DF0A42CFCE5F03BF806
:1000BE00EE8AF0A42CFCE5F038F8E433CF89F0A4F6
:1000CE002CFCE5F038CF3400CE89F0A42FFFE5F0FC
:1000DE003EFEE433C98DF0A42EFEE5F039CD8AF054
:1000EE00A42FFFE5F03EFEE43DFD33D0E0FB5007CC
:1000FE000BBB000F0202F2EC2CFCEF33FFEE33FED3
:06010E00ED33FD0202CA00
:100114000202F2EC5D046005E8590470030202E88F
:100124001202B3580460F6EC4860F2EC7004FDFE71
:10013400FF22C860DB2481C85009C39860025006BE
:100144000202EF9850CAF582E9294B4A7005AB8246
:100154000202DE75F0007C1A7880C3EF9BEE9AED04
:1001640099400DC3EF9BFFEE9AFEED99FDE842F036
:10017400DC23ACF0D0E0FFD0E0FED0E0FDAB822089
:10018400E7101BEB60BAEC2CFCEF33FFEE33FEED13
:1001940033FD0202CAE803F830E705C0F075F00049
:1001A400EF2FFFEE33FEED33FD40B830E7C280AAF7
:1001B40074F8CC6480CCC86480C8F58204604FC3F2
:1001C400EB9FF5F0EA9E42F0E99D42F0E89C45F091
:1001D400603C501DE5825FFFE582D313CB5BCBF41B
:1001E4002B5582FB50280ABA002409B90020088044
:1001F4001DE5825BFBE582D313CF5FCFF4C3132FDE
:100204005582FF50090EBE00050DBD00010CC3EB65
:100214009FF5F0EA9E42F0E99D42F0E89C45F060CB
:0902240007CC4820E701B3EC22ED
:10022D00ED33EC33600A047003BD8004ECB2E7FCDF
:01023D00229E
:10023E0075F020800E75F010800575F0087D007E3B
:10024E00007F003392D530D50312045FEC3340109B
:10025E00EF33FFEE33FEED33FDEC33FCD5F0ED2244
:0E026E00E5F0247EA2D513CC92E7CDCEFF2280
:10027C00EDD2E7CD33EC3392D524814006E4FFFE7A
:10028C00FDFC22FCE4CFCECDCC24E0501174FF80D9
:10029C00EDC3CC13CCCD13CDCE13CECF13CF047076
:0702AC00F030D5DE02045F13
:1002B300E9D2E7C933E833F892D5EDD2E7CD33EC91
:0702C30033FC5002B2D5220A
:1002CA00EC30E7100FBF000C0EBE00080DBD000495
:1002DA000BEB6014A2D5EB13FCED92E7FD2274FF41
:1002EA00FCFDFEFF22E480F8A2D574FF13FC7D809A
:0302FA00E480EFAE
:03000000020A7A77
:0C0A7A00787FE4F6D8FD75812C02046D35
:1002FD00BB010CE58229F582E5833AF583E02250B6
:10030D0006E92582F8E622BBFE06E92582F8E222FF
:0D031D00E58229F582E5833AF583E4932219
:10032A00EF8DF0A4A8F0CF8CF0A428CE8DF0A42EE7
:02033A00FE22A1
:10033C00BC000BBE0029EF8DF084FFADF022E4CCA5
:10034C00F875F008EF2FFFEE33FEEC33FCEE9DEC6E
:10035C00984005FCEE9DFE0FD5F0E9E4CEFD22EDB4
:10036C00F8F5F0EE8420D21CFEADF075F008EF2FFE
:10037C00FFED33FD4007985006D5F0F222C398FDEF
:05038C000FD5F0EA228C
:1003910075F008758200EF2FFFEE33FECD33CDCC23
:1003A10033CCC58233C5829BED9AEC99E5829840A6
:1003B1000CF582EE9BFEED9AFDEC99FC0FD5F0D683
:1003C100E4CEFBE4CDFAE4CCF9A88222B800C1B9AD
:1003D1000059BA002DEC8BF084CFCECDFCE5F0CBEB
:1003E100F97818EF2FFFEE33FEED33FDEC33FCEB24
:1003F10033FB10D703994004EB99FB0FD8E5E4F9DF
:10040100FA227818EF2FFFEE33FEED33FDEC33FCCB
:10041100C933C910D7059BE99A4007EC9BFCE99ABF
:10042100F90FD8E0E4C9FAE4CCFB2275F010EF2F04
:10043100FFEE33FEED33FDCC33CCC833C810D70704
:100441009BEC9AE899400AED9BFDEC9AFCE899F83F
:0E0451000FD5F0DAE4CDFBE4CCFAE4C8F922D2
:0E045F00C3E49FFFE49EFEE49DFDE49CFC22AE
:00000001FF
