:10000300000E1B7F7F1B0E0000040C187F7F1B0E4E
:1000130000080C057F7F1E0CC00041221A7C7D1A4C
:10002300006061120A7E7F0800060E080B3E3E0B3D
:1000330000030B080B3E3E0B00060E08093F3E0B68
:10004300000E137E7E1F0E0008137E7E121D0C0011
:1000530009127E7F1013030009127E7F101C0C000F
:10006300000C157E7E170E000030380D7E7F1D08B4
:10007300C0C0301B7C7F0800000037F8FA34000052
:1000830000001B7C7C1A01000000091E7C7F180005
:1000930000001B7C7C1B00000000091E7C7F1800F5
:1000A30000001B7C7C1B00000810167C7F100800DE
:1000B3000010137C7E1800000008137C7F101000D2
:1000C300000812FCFD3A0000000812FCFC2210009C
:1000D300000061127C7F106000002011127C7E19E9
:1000E300000000310A7C7E0D00002011127C7E1975
:1000F300000000310A7C7E0D00002011127C7E1965
:10010300000000310A7C7E0D00002011127C7E1954
:08011300000000310A7C7E0DA2
:10011B00E4F509F50A1201DFE4F508E5082509FF06
:10012B00E433FE74032FF58274003EF583E493FDF4
:10013B007C00AF081201980508E508C3940840DB62
:10014B00050AE50AD3941940CFE4F50A740825098A
:10015B00F509D39410748094A740BDE4F50980B8D9
:0A01BA00EF1FAC0670011E4C600E32
:0C01C400750B02750CC7D50CFDD50BFAAD
:0301D00080E822A2
:02016B00AD07DE
:10016D00E4FB7E007480A803088006CEA2E713CEC0
:10017D0013D8F8FFEDF582EF558224FF92B4D2B675
:0A018D00C2B60BBB08DCD2B5C2B548
:010197002245
:10019800AA07AF0512016BAF02A807748008800296
:1001A800C313D8FCF4F5807F017E001201BA758074
:0201B800FF2224
:0501DF00C2B6C2B5220A
:030000000201D327
:0C01D300787FE4F6D8FD75810C02011B5A
:00000001FF
